{
  "_format": "hh-sol-artifact-1",
  "contractName": "VPortal",
  "sourceName": "contracts/VPortal.sol",
  "abi": [
    {
      "inputs": [],
      "stateMutability": "payable",
      "type": "constructor"
    },
    {
      "anonymous": false,
      "inputs": [
        {
          "indexed": true,
          "internalType": "address",
          "name": "from",
          "type": "address"
        },
        {
          "indexed": false,
          "internalType": "uint256",
          "name": "wavedAt",
          "type": "uint256"
        },
        {
          "indexed": false,
          "internalType": "string",
          "name": "message",
          "type": "string"
        }
      ],
      "name": "NewWave",
      "type": "event"
    },
    {
      "inputs": [],
      "name": "getTotalWaves",
      "outputs": [
        {
          "internalType": "uint256[]",
          "name": "",
          "type": "uint256[]"
        }
      ],
      "stateMutability": "view",
      "type": "function"
    },
    {
      "inputs": [],
      "name": "getVisitorsWaves",
      "outputs": [
        {
          "components": [
            {
              "internalType": "string",
              "name": "name",
              "type": "string"
            },
            {
              "internalType": "string",
              "name": "email",
              "type": "string"
            },
            {
              "internalType": "string[]",
              "name": "messages",
              "type": "string[]"
            },
            {
              "internalType": "address",
              "name": "visitorsAddress",
              "type": "address"
            },
            {
              "internalType": "uint256",
              "name": "waveNo",
              "type": "uint256"
            },
            {
              "internalType": "uint256",
              "name": "wavedAt",
              "type": "uint256"
            }
          ],
          "internalType": "struct VPortal.person[]",
          "name": "",
          "type": "tuple[]"
        }
      ],
      "stateMutability": "view",
      "type": "function"
    },
    {
      "inputs": [
        {
          "internalType": "address",
          "name": "_sender",
          "type": "address"
        },
        {
          "internalType": "string",
          "name": "_message",
          "type": "string"
        }
      ],
      "name": "previoulyVisited",
      "outputs": [
        {
          "internalType": "bool",
          "name": "",
          "type": "bool"
        }
      ],
      "stateMutability": "nonpayable",
      "type": "function"
    },
    {
      "inputs": [],
      "name": "totalWaves",
      "outputs": [
        {
          "internalType": "uint256",
          "name": "",
          "type": "uint256"
        }
      ],
      "stateMutability": "view",
      "type": "function"
    },
    {
      "inputs": [
        {
          "internalType": "address",
          "name": "",
          "type": "address"
        }
      ],
      "name": "visitors",
      "outputs": [
        {
          "internalType": "string",
          "name": "name",
          "type": "string"
        },
        {
          "internalType": "string",
          "name": "email",
          "type": "string"
        },
        {
          "internalType": "address",
          "name": "visitorsAddress",
          "type": "address"
        },
        {
          "internalType": "uint256",
          "name": "waveNo",
          "type": "uint256"
        },
        {
          "internalType": "uint256",
          "name": "wavedAt",
          "type": "uint256"
        }
      ],
      "stateMutability": "view",
      "type": "function"
    },
    {
      "inputs": [
        {
          "internalType": "string",
          "name": "_name",
          "type": "string"
        },
        {
          "internalType": "string",
          "name": "_email",
          "type": "string"
        },
        {
          "internalType": "string",
          "name": "_message",
          "type": "string"
        }
      ],
      "name": "wave",
      "outputs": [],
      "stateMutability": "nonpayable",
      "type": "function"
    }
  ],
  "bytecode": "0x608060405264e8d4a51000600455620000586040518060400160405280601c81526020017f50617961626c6520636f6e747261637420636f6e7374727563746564000000008152506200008060201b62000e831760201c565b6064444262000068919062000185565b620000749190620001ef565b600581905550620002e5565b6200012081604051602401620000979190620002c1565b6040516020818303038152906040527f41304fac000000000000000000000000000000000000000000000000000000007bffffffffffffffffffffffffffffffffffffffffffffffffffffffff19166020820180517bffffffffffffffffffffffffffffffffffffffffffffffffffffffff83818316178352505050506200012360201b60201c565b50565b60008151905060006a636f6e736f6c652e6c6f679050602083016000808483855afa5050505050565b6000819050919050565b7f4e487b7100000000000000000000000000000000000000000000000000000000600052601160045260246000fd5b600062000192826200014c565b91506200019f836200014c565b9250828201905080821115620001ba57620001b962000156565b5b92915050565b7f4e487b7100000000000000000000000000000000000000000000000000000000600052601260045260246000fd5b6000620001fc826200014c565b915062000209836200014c565b9250826200021c576200021b620001c0565b5b828206905092915050565b600081519050919050565b600082825260208201905092915050565b60005b838110156200026357808201518184015260208101905062000246565b60008484015250505050565b6000601f19601f8301169050919050565b60006200028d8262000227565b62000299818562000232565b9350620002ab81856020860162000243565b620002b6816200026f565b840191505092915050565b60006020820190508181036000830152620002dd818462000280565b905092915050565b61205680620002f56000396000f3fe608060405234801561001057600080fd5b50600436106100625760003560e01c80630b639818146100675780630d0ea0c61461009757806323a2a6de146100cb578063291bcab3146100e9578063689a3257146101075780639a2cdc0814610123575b600080fd5b610081600480360381019061007c919061135b565b610141565b60405161008e91906113d2565b60405180910390f35b6100b160048036038101906100ac91906113ed565b610394565b6040516100c29594939291906114c1565b60405180910390f35b6100d36104fa565b6040516100e091906117a5565b60405180910390f35b6100f1610897565b6040516100fe91906117c7565b60405180910390f35b610121600480360381019061011c91906117e2565b61089d565b005b61012b610de3565b6040516101389190611938565b60405180910390f35b60008273ffffffffffffffffffffffffffffffffffffffff16600360008573ffffffffffffffffffffffffffffffffffffffff1673ffffffffffffffffffffffffffffffffffffffff16815260200190815260200160002060030160009054906101000a900473ffffffffffffffffffffffffffffffffffffffff1673ffffffffffffffffffffffffffffffffffffffff1603610389574262011940600360008673ffffffffffffffffffffffffffffffffffffffff1673ffffffffffffffffffffffffffffffffffffffff1681526020019081526020016000206005015461022a9190611989565b1061026a576040517f08c379a000000000000000000000000000000000000000000000000000000000815260040161026190611a2f565b60405180910390fd5b600360008473ffffffffffffffffffffffffffffffffffffffff1673ffffffffffffffffffffffffffffffffffffffff168152602001908152602001600020600201829080600181540180825580915050600190039060005260206000200160009091909190915090816102de9190611c5b565b506001600360008573ffffffffffffffffffffffffffffffffffffffff1673ffffffffffffffffffffffffffffffffffffffff16815260200190815260200160002060040160008282546103329190611989565b9250508190555042600360008573ffffffffffffffffffffffffffffffffffffffff1673ffffffffffffffffffffffffffffffffffffffff168152602001908152602001600020600501819055506001905061038e565b600090505b92915050565b60036020528060005260406000206000915090508060000180546103b790611a7e565b80601f01602080910402602001604051908101604052809291908181526020018280546103e390611a7e565b80156104305780601f1061040557610100808354040283529160200191610430565b820191906000526020600020905b81548152906001019060200180831161041357829003601f168201915b50505050509080600101805461044590611a7e565b80601f016020809104026020016040519081016040528092919081815260200182805461047190611a7e565b80156104be5780601f10610493576101008083540402835291602001916104be565b820191906000526020600020905b8154815290600101906020018083116104a157829003601f168201915b5050505050908060030160009054906101000a900473ffffffffffffffffffffffffffffffffffffffff16908060040154908060050154905085565b6060600060018054905067ffffffffffffffff81111561051d5761051c611230565b5b60405190808252806020026020018201604052801561055657816020015b61054361107d565b81526020019060019003908161053b5790505b50905060005b60018054905081101561088f576000600360006001848154811061058357610582611d2d565b5b9060005260206000200160009054906101000a900473ffffffffffffffffffffffffffffffffffffffff1673ffffffffffffffffffffffffffffffffffffffff1673ffffffffffffffffffffffffffffffffffffffff1681526020019081526020016000206040518060c001604052908160008201805461060390611a7e565b80601f016020809104026020016040519081016040528092919081815260200182805461062f90611a7e565b801561067c5780601f106106515761010080835404028352916020019161067c565b820191906000526020600020905b81548152906001019060200180831161065f57829003601f168201915b5050505050815260200160018201805461069590611a7e565b80601f01602080910402602001604051908101604052809291908181526020018280546106c190611a7e565b801561070e5780601f106106e35761010080835404028352916020019161070e565b820191906000526020600020905b8154815290600101906020018083116106f157829003601f168201915b5050505050815260200160028201805480602002602001604051908101604052809291908181526020016000905b828210156107e857838290600052602060002001805461075b90611a7e565b80601f016020809104026020016040519081016040528092919081815260200182805461078790611a7e565b80156107d45780601f106107a9576101008083540402835291602001916107d4565b820191906000526020600020905b8154815290600101906020018083116107b757829003601f168201915b50505050508152602001906001019061073c565b5050505081526020016003820160009054906101000a900473ffffffffffffffffffffffffffffffffffffffff1673ffffffffffffffffffffffffffffffffffffffff1673ffffffffffffffffffffffffffffffffffffffff168152602001600482015481526020016005820154815250509050808383815181106108705761086f611d2d565b5b602002602001018190525050808061088790611d5c565b91505061055c565b508091505090565b60005481565b33600260006101000a81548173ffffffffffffffffffffffffffffffffffffffff021916908373ffffffffffffffffffffffffffffffffffffffff16021790555060016000808282546108f09190611989565b925050819055506109586040518060400160405280601781526020017f257320686173206a7573742073656e7420612077617665000000000000000000815250600260009054906101000a900473ffffffffffffffffffffffffffffffffffffffff16610f1c565b610984600260009054906101000a900473ffffffffffffffffffffffffffffffffffffffff1682610141565b610bf0576000600167ffffffffffffffff8111156109a5576109a4611230565b5b6040519080825280602002602001820160405280156109d857816020015b60608152602001906001900390816109c35790505b50905081816000815181106109f0576109ef611d2d565b5b60200260200101819052506040518060c00160405280858152602001848152602001828152602001600260009054906101000a900473ffffffffffffffffffffffffffffffffffffffff1673ffffffffffffffffffffffffffffffffffffffff168152602001600181526020014281525060036000600260009054906101000a900473ffffffffffffffffffffffffffffffffffffffff1673ffffffffffffffffffffffffffffffffffffffff1673ffffffffffffffffffffffffffffffffffffffff1681526020019081526020016000206000820151816000019081610ad79190611c5b565b506020820151816001019081610aed9190611c5b565b506040820151816002019080519060200190610b0a9291906110c9565b5060608201518160030160006101000a81548173ffffffffffffffffffffffffffffffffffffffff021916908373ffffffffffffffffffffffffffffffffffffffff1602179055506080820151816004015560a082015181600501559050506001600260009054906101000a900473ffffffffffffffffffffffffffffffffffffffff169080600181540180825580915050600190039060005260206000200160009091909190916101000a81548173ffffffffffffffffffffffffffffffffffffffff021916908373ffffffffffffffffffffffffffffffffffffffff160217905550505b3373ffffffffffffffffffffffffffffffffffffffff167f5f7e16dc676677766a70e9c5628aa6c54ddb8b6e5188e2ae1e1f17f1ffbea7164283604051610c38929190611da4565b60405180910390a260644442610c4e9190611989565b610c589190611e03565b600581905550610c9f6040518060400160405280601681526020017f52616e646f6d20232067656e6572617465643a20256400000000000000000000815250600554610fb8565b60146005541015610dde57610ce96040518060400160405280600781526020017f257320776f6e210000000000000000000000000000000000000000000000000081525033610f1c565b476004541115610d2e576040517f08c379a0000000000000000000000000000000000000000000000000000000008152600401610d2590611ea6565b60405180910390fd5b60003373ffffffffffffffffffffffffffffffffffffffff16600454604051610d5690611ef7565b60006040518083038185875af1925050503d8060008114610d93576040519150601f19603f3d011682016040523d82523d6000602084013e610d98565b606091505b5050905080610ddc576040517f08c379a0000000000000000000000000000000000000000000000000000000008152600401610dd390611f7e565b60405180910390fd5b505b505050565b60606000600267ffffffffffffffff811115610e0257610e01611230565b5b604051908082528060200260200182016040528015610e305781602001602082028036833780820191505090505b50905060005481600081518110610e4a57610e49611d2d565b5b60200260200101818152505060018054905081600181518110610e7057610e6f611d2d565b5b6020026020010181815250508091505090565b610f1981604051602401610e979190611f9e565b6040516020818303038152906040527f41304fac000000000000000000000000000000000000000000000000000000007bffffffffffffffffffffffffffffffffffffffffffffffffffffffff19166020820180517bffffffffffffffffffffffffffffffffffffffffffffffffffffffff8381831617835250505050611054565b50565b610fb48282604051602401610f32929190611fc0565b6040516020818303038152906040527f319af333000000000000000000000000000000000000000000000000000000007bffffffffffffffffffffffffffffffffffffffffffffffffffffffff19166020820180517bffffffffffffffffffffffffffffffffffffffffffffffffffffffff8381831617835250505050611054565b5050565b6110508282604051602401610fce929190611ff0565b6040516020818303038152906040527fb60e72cc000000000000000000000000000000000000000000000000000000007bffffffffffffffffffffffffffffffffffffffffffffffffffffffff19166020820180517bffffffffffffffffffffffffffffffffffffffffffffffffffffffff8381831617835250505050611054565b5050565b60008151905060006a636f6e736f6c652e6c6f679050602083016000808483855afa5050505050565b6040518060c00160405280606081526020016060815260200160608152602001600073ffffffffffffffffffffffffffffffffffffffff16815260200160008152602001600081525090565b828054828255906000526020600020908101928215611111579160200282015b828111156111105782518290816111009190611c5b565b50916020019190600101906110e9565b5b50905061111e9190611122565b5090565b5b8082111561114257600081816111399190611146565b50600101611123565b5090565b50805461115290611a7e565b6000825580601f106111645750611183565b601f0160209004906000526020600020908101906111829190611186565b5b50565b5b8082111561119f576000816000905550600101611187565b5090565b6000604051905090565b600080fd5b600080fd5b600073ffffffffffffffffffffffffffffffffffffffff82169050919050565b60006111e2826111b7565b9050919050565b6111f2816111d7565b81146111fd57600080fd5b50565b60008135905061120f816111e9565b92915050565b600080fd5b600080fd5b6000601f19601f8301169050919050565b7f4e487b7100000000000000000000000000000000000000000000000000000000600052604160045260246000fd5b6112688261121f565b810181811067ffffffffffffffff8211171561128757611286611230565b5b80604052505050565b600061129a6111a3565b90506112a6828261125f565b919050565b600067ffffffffffffffff8211156112c6576112c5611230565b5b6112cf8261121f565b9050602081019050919050565b82818337600083830152505050565b60006112fe6112f9846112ab565b611290565b90508281526020810184848401111561131a5761131961121a565b5b6113258482856112dc565b509392505050565b600082601f83011261134257611341611215565b5b81356113528482602086016112eb565b91505092915050565b60008060408385031215611372576113716111ad565b5b600061138085828601611200565b925050602083013567ffffffffffffffff8111156113a1576113a06111b2565b5b6113ad8582860161132d565b9150509250929050565b60008115159050919050565b6113cc816113b7565b82525050565b60006020820190506113e760008301846113c3565b92915050565b600060208284031215611403576114026111ad565b5b600061141184828501611200565b91505092915050565b600081519050919050565b600082825260208201905092915050565b60005b83811015611454578082015181840152602081019050611439565b60008484015250505050565b600061146b8261141a565b6114758185611425565b9350611485818560208601611436565b61148e8161121f565b840191505092915050565b6114a2816111d7565b82525050565b6000819050919050565b6114bb816114a8565b82525050565b600060a08201905081810360008301526114db8188611460565b905081810360208301526114ef8187611460565b90506114fe6040830186611499565b61150b60608301856114b2565b61151860808301846114b2565b9695505050505050565b600081519050919050565b600082825260208201905092915050565b6000819050602082019050919050565b600082825260208201905092915050565b600061156a8261141a565b611574818561154e565b9350611584818560208601611436565b61158d8161121f565b840191505092915050565b600081519050919050565b600082825260208201905092915050565b6000819050602082019050919050565b60006115d0838361155f565b905092915050565b6000602082019050919050565b60006115f082611598565b6115fa81856115a3565b93508360208202850161160c856115b4565b8060005b85811015611648578484038952815161162985826115c4565b9450611634836115d8565b925060208a01995050600181019050611610565b50829750879550505050505092915050565b611663816111d7565b82525050565b611672816114a8565b82525050565b600060c0830160008301518482036000860152611695828261155f565b915050602083015184820360208601526116af828261155f565b915050604083015184820360408601526116c982826115e5565b91505060608301516116de606086018261165a565b5060808301516116f16080860182611669565b5060a083015161170460a0860182611669565b508091505092915050565b600061171b8383611678565b905092915050565b6000602082019050919050565b600061173b82611522565b611745818561152d565b9350836020820285016117578561153e565b8060005b858110156117935784840389528151611774858261170f565b945061177f83611723565b925060208a0199505060018101905061175b565b50829750879550505050505092915050565b600060208201905081810360008301526117bf8184611730565b905092915050565b60006020820190506117dc60008301846114b2565b92915050565b6000806000606084860312156117fb576117fa6111ad565b5b600084013567ffffffffffffffff811115611819576118186111b2565b5b6118258682870161132d565b935050602084013567ffffffffffffffff811115611846576118456111b2565b5b6118528682870161132d565b925050604084013567ffffffffffffffff811115611873576118726111b2565b5b61187f8682870161132d565b9150509250925092565b600081519050919050565b600082825260208201905092915050565b6000819050602082019050919050565b60006118c18383611669565b60208301905092915050565b6000602082019050919050565b60006118e582611889565b6118ef8185611894565b93506118fa836118a5565b8060005b8381101561192b57815161191288826118b5565b975061191d836118cd565b9250506001810190506118fe565b5085935050505092915050565b6000602082019050818103600083015261195281846118da565b905092915050565b7f4e487b7100000000000000000000000000000000000000000000000000000000600052601160045260246000fd5b6000611994826114a8565b915061199f836114a8565b92508282019050808211156119b7576119b661195a565b5b92915050565b7f506c73207761766520616761696e20746f6d6f72726f7720666f72206120636860008201527f616e636520746f2077696e20736f6d6520636f6f6c2073747566660000000000602082015250565b6000611a19603b83611425565b9150611a24826119bd565b604082019050919050565b60006020820190508181036000830152611a4881611a0c565b9050919050565b7f4e487b7100000000000000000000000000000000000000000000000000000000600052602260045260246000fd5b60006002820490506001821680611a9657607f821691505b602082108103611aa957611aa8611a4f565b5b50919050565b60008190508160005260206000209050919050565b60006020601f8301049050919050565b600082821b905092915050565b600060088302611b117fffffffffffffffffffffffffffffffffffffffffffffffffffffffffffffffff82611ad4565b611b1b8683611ad4565b95508019841693508086168417925050509392505050565b6000819050919050565b6000611b58611b53611b4e846114a8565b611b33565b6114a8565b9050919050565b6000819050919050565b611b7283611b3d565b611b86611b7e82611b5f565b848454611ae1565b825550505050565b600090565b611b9b611b8e565b611ba6818484611b69565b505050565b5b81811015611bca57611bbf600082611b93565b600181019050611bac565b5050565b601f821115611c0f57611be081611aaf565b611be984611ac4565b81016020851015611bf8578190505b611c0c611c0485611ac4565b830182611bab565b50505b505050565b600082821c905092915050565b6000611c3260001984600802611c14565b1980831691505092915050565b6000611c4b8383611c21565b9150826002028217905092915050565b611c648261141a565b67ffffffffffffffff811115611c7d57611c7c611230565b5b611c878254611a7e565b611c92828285611bce565b600060209050601f831160018114611cc55760008415611cb3578287015190505b611cbd8582611c3f565b865550611d25565b601f198416611cd386611aaf565b60005b82811015611cfb57848901518255600182019150602085019450602081019050611cd6565b86831015611d185784890151611d14601f891682611c21565b8355505b6001600288020188555050505b505050505050565b7f4e487b7100000000000000000000000000000000000000000000000000000000600052603260045260246000fd5b6000611d67826114a8565b91507fffffffffffffffffffffffffffffffffffffffffffffffffffffffffffffffff8203611d9957611d9861195a565b5b600182019050919050565b6000604082019050611db960008301856114b2565b8181036020830152611dcb8184611460565b90509392505050565b7f4e487b7100000000000000000000000000000000000000000000000000000000600052601260045260246000fd5b6000611e0e826114a8565b9150611e19836114a8565b925082611e2957611e28611dd4565b5b828206905092915050565b7f547279696e6720746f207769746864726177206d6f7265206d6f6e657920746860008201527f616e2074686520636f6e74726163742068617300000000000000000000000000602082015250565b6000611e90603383611425565b9150611e9b82611e34565b604082019050919050565b60006020820190508181036000830152611ebf81611e83565b9050919050565b600081905092915050565b50565b6000611ee1600083611ec6565b9150611eec82611ed1565b600082019050919050565b6000611f0282611ed4565b9150819050919050565b7f4661696c656420746f207769746864726177206d6f6e65792066726f6d20636f60008201527f6e74726163742e00000000000000000000000000000000000000000000000000602082015250565b6000611f68602783611425565b9150611f7382611f0c565b604082019050919050565b60006020820190508181036000830152611f9781611f5b565b9050919050565b60006020820190508181036000830152611fb88184611460565b905092915050565b60006040820190508181036000830152611fda8185611460565b9050611fe96020830184611499565b9392505050565b6000604082019050818103600083015261200a8185611460565b905061201960208301846114b2565b939250505056fea26469706673582212204401e825897e6e12adfd36586da300a3e5e2caf3d4f907c0e79b96262a05a3ce64736f6c63430008110033",
  "linkReferences": {},
  "deployedLinkReferences": {}
}